:0E0000000C943B000C9400000C9400000C9437
:10000E0000000C9400000C9400000C9400000C9462
:10001E0000000C9400000C9468000C9400000C94EA
:10002E0000000C9400000C9400000C9400000C9442
:10003E0000000C9400000C9400000C9400000C9432
:10004E0000000C94000000000000000009000A00EF
:10005E0006000500010002005400040004005600D2
:10006E00070060015A000000F894EE27ECBBF1E0A7
:10007E00FBBFEBBFE5BF8DE0A2E0BB27ED938A95FA
:10008E00E9F780E094E0A0E6ED930197E9F7E2E668
:10009E00F0E085919591009761F0A591B59105904D
:1000AE001590BF01F00105900D920197E1F7FB014C
:1000BE00F0CFEFE5EDBFE4E0EEBFC0E6D1E00C948B
:1000CE00AC00AA93BA93EA93FA93EFB7EA93F201CC
:1000DE0031962F01E4E1F0E0E415F50569F5E4E071
:1000EE00F0E06E167F0614F420FE01C016C0F30178
:1000FE00A0E6B1E0EE0FFF1FAE0FBF1FEC91EBBB02
:10010E00F30131963F01689420F8E4E0F0E0E61543
:10011E00F70511F4662477240DC020FE0BC0E0E035
:10012E00EBBBE89420F8E4E0F0E0E615F70511F4F7
:10013E006624772444245524E6E0E2BFE991EFBF1C
:10014E00F991E991B991A9911895EFEFEABBE0E029
:10015E00EBBBE4BBE3BBE1E0E3BFE6E0E2BFE0E024
:10016E00ECBFE1E0E9BF9A9901C07894FCCFFFCFD4
:00000001FF
