:020000000C945E
:100002003B000C9400000C9400000C9400000C9433
:1000120000000C9400000C9400000C9400000C945E
:1000220000000C9468000C9400000C9400000C94E6
:1000320000000C9400000C9400000C9400000C943E
:1000420000000C9400000C9400000C9400000C942E
:10005200000000000000000009000A000600050080
:100062000100020054000400040056000700600171
:100072005A000000F894EE27ECBBF1E0FBBFEBBFA7
:10008200E5BF8DE0A2E0BB27ED938A95E9F780E01A
:1000920094E0A0E6ED930197E9F7E2E6F0E08591BE
:1000A2009591009761F0A591B59105901590BF01CA
:1000B200F00105900D920197E1F7FB01F0CFEFE51A
:1000C200EDBFE4E0EEBFC0E6D1E00C949C000A92E2
:1000D200AA93BA93EA93FA93EFB7EA93E6E0E2BF00
:1000E200F201A0E6B1E0EE0FFF1FAE0FBF1FEC91D1
:1000F200EBBB00240814090464F4E3E0F0E04E16BC
:100102005F0624F4F20131962F0102C044245524E3
:100112000AC00024041405041CF4F201319702C041
:10012200E3E0F0E02F01E991EFBFF991E991B99194
:10013200A9910990189544245524E1E0F0E04F017B
:10014200EFEFEABBE0E0EBBBE4BBE5BBE3E0E3BF20
:10015200E0E0E2BFECBFE1E0E9BF78949A9903C026
:100162008824992403C0E1E0F0E04F01F7CFFFCFEC
:00000001FF
