:080000000C9449000C9400006F
:100008000C9400000C9400000C9400000C94000068
:100018000C9400000C9400000C9476000C940000E2
:100028000C9400000C9400000C9400000C94000048
:100038000C9400000C9400000C9400000C94000038
:100048000C9400000C9400000C9400001027E803A6
:1000580064000A0001000010000110000100000007
:1000680000004142434445464748494A4B4C4D4E9F
:100078004F505152535455565758595A040004007A
:1000880066001A0060016A000000F894EE27ECBBD5
:10009800F1E0FBBFEBBFE5BF8DE0A2E0BB27ED932E
:1000A8008A95E9F780E094E0A0E6ED930197E9F7F7
:1000B800E4E8F0E085919591009761F0A591B591FC
:1000C80005901590BF01F00105900D920197E1F799
:1000D800FB01F0CFEFE5EDBFE4E0EEBFC0E6D1E015
:1000E8000C94BB000A921A92FA926A937A938A93B2
:1000F8009A93AA93BA93EA93FA93EFB7EA93062CE2
:10010800072801F555D044245524EDE0F0E04E16BB
:100118005F0634F40E94EB00F20131962F01F5CF0F
:10012800A0EC35D0AEE133D0EDE0F0E02F01EAE10C
:10013800F0E04E165F0634F40E94EB00F2013196AF
:100148002F01F5CFF30131963F01EFEFEDBDE0EF61
:10015800ECBDE991EFBFF991E991B991A991999114
:10016800899179916991F990199009901895E0E031
:10017800EFBDE1E0EEBDEFEFEDBDE0EFECBDE0E09F
:10018800E5BFE4BFE4E0E9BF7894FFCFFFCFAA93CF
:10019800E881E2BBA89804C0AA93E881E2BBA89AC8
:1001A800A99AAEE1B0E00E94F200A99821960895BC
:1001B800EFEFE1BBE3E0E4BBA8E3E9DFA6E0E7DFBC
:1001C800ADE0E5DFA1E0E3DFA0E8E1DF0895A0E628
:1001D800B1E0A40DB51DAC910C94D000109639F087
:1001E80080ED97E00197F1F7A8951197C9F7089561
:00000001FF
