:060000000C9433000C9487
:1000060000000C9400000C9400000C9400000C946A
:1000160000000C9400000C9400000C9400000C945A
:1000260000000C9400000C9400000C9400000C944A
:1000360000000C9400000C9400000C9400000C943A
:1000460000000C9400000C9400000C940000102793
:10005600E80364000A00010000100001100001001E
:10006600F894EE27ECBBF1E0FBBFEBBFE5BF8DE0FC
:10007600A2E0BB27ED938A95E9F780E094E0A0E63D
:10008600ED930197E9F7EFE5EDBFE4E0EEBFC0E6DB
:10009600D1E00C944E002BD0A8E41DD0A5E41BD0D3
:1000A600ACE419D0ACE417D0AFE415D0A4E10ED07F
:1000B600A7E511D0AFE40FD0A2E50DD0ACE40BD08C
:1000C600A4E409D0A1E207D0FFCFFFCFAA93E8812D
:1000D600E2BBA89804C0AA93E881E2BBA89AA99AB1
:1000E600A4E1B0E00E948900A99821960895EFEF57
:1000F600E1BBE3E0E4BBA8E3E9DFA6E0E7DFADE0D0
:10010600E5DFA1E0E3DFA0E8E1DF0895109639F02E
:1001160080ED97E00197F1F7A8951197C9F7089533
:00000001FF
