:0A0000000C943B000C9400000C94DB
:10000A0000000C9400000C9400000C9474000C94F2
:10001A0000000C9400000C9468000C9400000C94EE
:10002A0000000C9400000C9400000C9400000C9446
:10003A0000000C9400000C9400000C9400000C9436
:10004A0000000C9400000C9400001027E8036400E0
:10005A000A000100001000011000010000002564E0
:10006A0020487A000200060066000000F894EE2795
:10007A00ECBBF1E0FBBFEBBFE5BF8DE0A2E0BB2725
:10008A00ED938A95E9F780E094E0A0E6ED93019775
:10009A00E9F7EEE6F0E085919591009761F0A59178
:1000AA00B59105901590BF01F00105900D92019749
:1000BA00E1F7FB01F0CFEFE5EDBFE4E0EEBFC0E60C
:1000CA00D1E00C94D700EA93FA93EFB7EA93F201DE
:1000DA0031962F01E991EFBFF991E99118950A92AA
:1000EA001A92FA926A937A938A939A93AA93BA93F0
:1000FA00EA93FA93EFB7EA93E7B5FE2FE0E0DF0160
:10010A00E6B5F0E0AE0FBF1FF201E0E0F0E0EA0F63
:10011A00FB1F5F01F201E0E0F0E0EA0DFB1DE819C8
:10012A00F9096F01D601EEEEF2E00E94FF02E093B8
:10013A006001F0936101442455244501E2E6F1E0AF
:10014A00FA93EA93E8E6F0E0FA93EA93E091600121
:10015A00F0916101662777270E941A0384E00E94C2
:10016A007402289639D066247724E6E0F0E06E1609
:10017A007F0654F4A2E6B1E0A60DB71DAC9120D0DB
:10018A00F30131963F01F1CFE991EFBFF991E9917E
:10019A00B991A9919991899179916991F990199057
:1001AA0009901895E0E0EFBDE2ECEEBDE4E2E9BFAC
:1001BA007894FFCFFFCFAA93E881E8BBD89804C010
:1001CA00AA93E881E8BBD89AD99AAEE1B0E00E9436
:1001DA00ED02D99821960895E3E0EABBEFEFE7BB79
:1001EA00A8E3E9DFA6E0E7DFADE0E5DFA1E0E3DFD2
:1001FA00A0E8E1DF0895BA93AA931A930A93AA8111
:10020A00BB8112960E941203309759F1AA81BB81D1
:10021A0014960E9412038F01309761F00230E0E0D9
:10022A001E0798F0F80131978F01AA81BB811496B5
:10023A00ED93FC93AA81BB811296ED91FD913196C3
:10024A00FE93EE933197AC81A083AA81BB810E9471
:10025A001203FF232AF0ED91FD913196FE93EE935E
:10026A0006C0AA81BB81EFEFFFEFED93FC931981E2
:10027A00088125960895BA93AA9326970E941F0388
:10028A0010E0AC85BD85E0E0F0E0ED93FC93EA89EF
:10029A00FB893196EA8BFB8B3197E4912E2FE03064
:1002AA0009F415C1E12FE03039F4253211F411E0D7
:1002BA0002C00E94C1020AC1E130A9F4253219F430
:1002CA000E94C10202C112E040E000E02D3211F4A6
:1002DA0001E0FCC02B3211F44BE2F8C0203211F4D9
:1002EA0040E2F4C002C0E23039F450E013E02033B7
:1002FA0011F40068EBC003C0E33009F0E7C0203313
:10030A0010F02A3308F007C0AAE05A9F502DE22FB6
:10031A00E0535E0FDBC0E22FE33649F40E94C802C5
:10032A00E889F989A481AA930E94CE02CEC0E33754
:10033A0041F40E94C8020E94D4020E94A8021E2F01
:10034A000AC0E03761F40E94C8020E94D4020E94E7
:10035A00B4021E2F086002600F7730E034C0E43622
:10036A0011F0E93611F4046002C0E53731F4E4E52E
:10037A00F0E0EE83FF8315E00CC0E83511F4086065
:10038A0003C0E83709F0A1C0EEE5F0E0EE83FF8391
:10039A0014E002FF14C00E94C8020E94DE02AB856C
:1003AA00AA233AF4EA85FB850E94FB02EA87FB87C7
:1003BA004DE2403011F01F5F01C00B7F04C00E9464
:1003CA00C8020E94DE0200FD11C0151778F407FF6B
:1003DA0008C002FF04C00B7F242F115001C020E384
:1003EA0001C020E20E94C1025150EFCF312F01FF1C
:1003FA0017C03030A1F003FF06C0EE81FF812591BE
:10040A00EE83FF8305C0AE81BF812D91AE83BF838A
:10041A000E94C102503009F051503150EACF4BC00E
:10042A0020E3EE81FF810E941603E887F987EE81B7
:10043A00FF813296EE83FF83E885F985AA85BB851D
:10044A00AE17BF0750F02F5FA885B985EA85FB85EF
:10045A00EA1BFB0BEA87FB87EFCF2A3328F003FF5F
:10046A0002C0295F01C0295D04FD1AC0213320F4AE
:10047A00A885B985119709F409C0531710F000FF30
:10048A0001C013C020E207FF0BC020E3006102FF96
:10049A0007C00B7F4A930E94CE02503009F0515098
:1004AA000E94C102503009F051503150A885B985D7
:1004BA00129708F0B5CF00FF08C0503031F0515004
:1004CA00E0E2EA930E94CE02F8CF10E0E0CEAC85DB
:1004DA00BD850E9412030E94260364960895FF9226
:1004EA00F82E26970E9421030E94E602309719F4FB
:1004FA00EFEFFFEF23C0DE0116960E94F7028D018F
:10050A000E94E602EE83FF83E0E0E887E987DE01E6
:10051A001A960E94F7020E941203FA93EA931A9318
:10052A000A93E0E0F1E0FA93EA93DE011A96A3DE79
:10053A009F01AE81BF81E0E0EC93F9010E9428039C
:10054A002A96FF900895BA93AA93A991B991EE2792
:10055A00FF276D91662311F03196FBCF0895BA9368
:10056A00AA93AA27BB27E991F9910590002011F0D7
:10057A001196FBCFFD0108952A93AD85BE85EF85BF
:10058A00F88909950895E889F9893497E88BF98BF0
:10059A000895AD85BE85EF85F88909950895A889DE
:1005AA00B98914960E941203EE83FF83AE81BF813C
:1005BA000895A889B98914960E941203EA87FB87CD
:1005CA000895DE011C960E94F7020E941203089504
:1005DA00109639F080ED97E00197F1F7A8951197F9
:1005EA00C9F708950024AF0DB01D0895F195E1955E
:1005FA00F04008950024112490E1AA0FBB1F001CAB
:10060A00111C0E1A1F0A18F40E0E1F1E01C0A1603B
:10061A009A9599F7FD01D0010895ED91FC911197F2
:10062A0008950590F491E02D08957A936A93FA93C8
:10063A00EA9308955A934A933A932A931A930A93F8
:10064A0008955D814C813B812A8119810881089531
:00000001FF
