:0E0000000C942A000C9400000C9400000C9448
:10000E0000000C9400000C9400000C9400000C9462
:10001E0000000C9400000C9400000C9400000C9452
:10002E0000000C9400000C9400000C9400000C9442
:10003E0000000C9400000C9400000C9400000C9432
:10004E0000000C940000F894EE27ECBBF1E0FBBF2F
:10005E00EBBFE5BF8DE0A2E0BB27ED938A95E9F7F4
:10006E0080E094E0A0E6ED930197E9F7EFE5EDBFB0
:10007E00E4E0EEBFC0E6D1E00C944500E0E0EABB60
:10008E00EFEFE7BB7894C89B2AC02DD0C19A32D02F
:10009E00C198C29A2FD0C298C39A2CD0C398C49A32
:1000AE0029D0C498C59A26D0C598C69A23D0C6988A
:1000BE00C79A20D0C798C69A1DD0C698C59A1AD08E
:1000CE00C598C49A17D0C498C39A14D0C398C29A2C
:1000DE0011D0C298C1980ED0C19805D002C0E0E0F0
:1000EE00E8BBD1CFFFCFC09AA2E3B0E00E9485005B
:1000FE00C0980895A2E3B0E00C948500109639F0F4
:10010E0088EB9BE00197F1F7A8951197C9F7089531
:00000001FF
