:040000000C942A0032
:100004000C9400000C9400000C9400000C9400006C
:100014000C9400000C9400000C9400000C9400005C
:100024000C9400000C9400000C9400000C9400004C
:100034000C9400000C9400000C9400000C9400003C
:100044000C9400000C9400000C9400000C9400002C
:10005400F894EE27ECBBF1E0FBBFEBBFE5BF8DE00E
:10006400A2E0BB27ED938A95E9F780E094E0A0E64F
:10007400ED930197E9F7EFE5EDBFE4E0EEBFC0E6ED
:10008400D1E00C944500E0E0EABBEFEFE7BB7894E5
:10009400C89B2DC030D0C19A35D0C198C29A32D0F5
:1000A400C298C39A2FD0C398C49A2CD0C498C59A26
:1000B40029D0C598C69A26D0C698C79A23D0C7987F
:1000C400C69A20D0C698C59A1DD0C598C49A1AD08D
:1000D400C498C39A17D0C398C29AA0E0B0E00E9413
:1000E4008800C298C1980ED0C19805D002C0E0E043
:1000F400E8BBCECFFFCFC09AA8ECB0E00E94880046
:10010400C0980895A8ECB0E00C948800109639F0DB
:1001140088EB9BE00197F1F7A8951197C9F708952B
:00000001FF
