:0C0000000C9445000C9400000C940000CF
:10000C000C9400000C9400000C9400000C94000064
:10001C000C9400000C9400000C9400000C94000054
:10002C000C9400000C9400000C9400000C94000044
:10003C000C9400000C9400000C9400000C94000034
:10004C000C9400000C9400001027E80364000A00D4
:10005C00010000100001100001000000BF0086002C
:10006C00DB00CF006600ED00FD008700FF00EF0015
:10007C000200040066001300600168000000F894A0
:10008C00EE27ECBBF1E0FBBFEBBFE5BF8DE0A2E0E0
:10009C00BB27ED938A95E9F780E094E0A0E6ED9319
:1000AC000197E9F7ECE7F0E085919591009761F005
:1000BC00A591B59105901590BF01F00105900D9299
:1000CC000197E1F7FB01F0CFEFE5EDBFE4E0EEBF08
:1000DC00C0E6D1E00C947200A098EFEFEABB989BBD
:1000EC0019C044245524EAE0F0E04E165F068CF467
:1000FC00F201A0E6B1E0EE0FFF1FAE0FBF1FEC91B7
:10010C00EBBBA4E6B0E00E949400F20131962F0103
:10011C00EACF02C0E0E0EBBBDFCFFFCF109639F0A7
:10012C0080ED97E00197F1F7A8951197C9F708951D
:00000001FF
